:100000000C9462000C948A000C948A000C948A0070
:100010000C948A000C948A000C948A000C948A0038
:100020000C948A000C948A000C948A000C948A0028
:100030000C948A000C948A000C948A000C948A0018
:100040000C94CE020C948A000C949C020C947602C0
:100050000C948A000C948A000C948A000C948A00F8
:100060000C948A000C948A000000000024002700F1
:100070002A0000000000250028002B0000000000DE
:1000800023002600290004040404040404040202DA
:100090000202020203030303030301020408102007
:1000A0004080010204081020010204081020000012
:1000B0000008000201000003040700000000000027
:1000C0000000EC0311241FBECFEFD8E0DEBFCDBF90
:1000D00011E0A0E0B1E0ECE4F8E002C005900D9280
:1000E000A031B107D9F721E0A0E1B1E001C01D9234
:1000F000A63BB207E1F710E0C2E6D0E004C02197CA
:10010000FE010E941904C136D107C9F70E941803E5
:100110000C9424040C940000CF92DF92EF92FF9293
:100120000F931F93CF93DF936C017A018B01C0E093
:10013000D0E0CE15DF0589F0D8016D918D01D60193
:10014000ED91FC910190F081E02DC6010995892B7C
:1001500011F47E0102C02196ECCFC701DF91CF914F
:100160001F910F91FF90EF90DF90CF900895FC01C9
:10017000918D828D981761F0828DDF01A80FB11DDE
:100180005D968C91928D9F5F9F73928F90E0089502
:100190008FEF9FEF0895FC01918D828D981731F0BC
:1001A000828DE80FF11D858D90E008958FEF9FEF10
:1001B0000895FC01918D228D892F90E0805C9F4FE6
:1001C000821B91098F739927089589E191E00E941C
:1001D000D90021E0892B09F420E0822F0895FC0149
:1001E000848DDF01A80FB11DA35ABF4F2C91848DC0
:1001F00090E001968F739927848FA689B7892C93F5
:10020000A089B1898C9180648C93938D848D98138F
:1002100006C00288F389E02D80818F7D8083089558
:10022000EF92FF920F931F93CF93DF93EC0181E046
:10023000888F9B8D8C8D981305C0E889F989808102
:1002400085FD24C0F62E0B8D10E00F5F1F4F0F733E
:100250001127E02E8C8DE8120CC00FB607FCFACFE8
:10026000E889F989808185FFF5CFCE010E94EF00F2
:10027000F1CF8B8DFE01E80FF11DE35AFF4FF082A5
:100280000B8FEA89FB898081806207C0EE89FF8934
:100290006083E889F98980818064808381E090E0CF
:1002A000DF91CF911F910F91FF90EF900895CF9321
:1002B000DF93EC01888D8823C9F0EA89FB8980816E
:1002C00085FD05C0A889B9898C9186FD0FC00FB640
:1002D00007FCF5CF808185FFF2CFA889B9898C9181
:1002E00085FFEDCFCE010E94EF00E7CFDF91CF91E8
:1002F000089580E090E0892B29F00E94E5008111AB
:100300000C9400000895833081F028F4813099F036
:100310008230A1F008958730A9F08830B9F0843098
:10032000D1F4809180008F7D03C0809180008F7711
:1003300080938000089584B58F7702C084B58F7D47
:1003400084BD08958091B0008F7703C08091B00084
:100350008F7D8093B00008951F93CF93DF93282F54
:1003600030E0F901E255FF4F8491F901E656FF4F65
:10037000D491F901EA57FF4FC491CC23C9F0162F4D
:1003800081110E948301EC2FF0E0EE0FFF1FEE5869
:10039000FF4FA591B4918FB7F894111105C09C91AE
:1003A000ED2FE095E92302C0EC91ED2BEC938FBF8C
:1003B000DF91CF911F910895CF93DF9390E0FC01DF
:1003C000E656FF4F2491FC01EA57FF4F84918823A2
:1003D00061F190E0880F991FFC01E859FF4FC5912A
:1003E000D491FC01EE58FF4FA591B491611109C061
:1003F0009FB7F8948881209582238883EC912E23DF
:100400000BC0623061F49FB7F8943881822F8095D9
:1004100083238883EC912E2B2C939FBF06C08FB72C
:10042000F894E8812E2B28838FBFDF91CF91089518
:100430003FB7F8948091150190911601A091170192
:10044000B091180126B5A89B05C02F3F19F0019661
:10045000A11DB11D3FBFBA2FA92F982F8827820F4A
:10046000911DA11DB11DBC01CD0142E0660F771F9A
:10047000881F991F4A95D1F708958F929F92AF9246
:10048000BF92CF92DF92EF92FF920E9418024B012F
:100490005C0182E3C82ED12CE12CF12C0E941802C1
:1004A000DC01CB0188199909AA09BB09883E934050
:1004B000A105B10558F021E0C21AD108E108F10800
:1004C00088EE880E83E0981EA11CB11CC114D104D3
:1004D000E104F10419F7FF90EF90DF90CF90BF9007
:1004E000AF909F908F9008950E941F041F920F92CB
:1004F0000FB60F9211242F933F934F935F936F93F7
:100500007F938F939F93AF93BF93EF93FF9389E173
:1005100091E00E94EF00FF91EF91BF91AF919F9109
:100520008F917F916F915F914F913F912F910F909C
:100530000FBE0F901F9018951F920F920FB60F923B
:1005400011242F938F939F93EF93FF93E0912901B1
:10055000F0912A018081E0912F01F091300182FD1C
:1005600012C09081809132018F5F8F73209133018F
:10057000821751F0E0913201F0E0E75EFE4F958F77
:100580008093320101C08081FF91EF919F918F9103
:100590002F910F900FBE0F901F9018951F920F92E2
:1005A0000FB60F9211242F933F938F939F93AF9386
:1005B000BF938091110190911201A0911301B0910C
:1005C00014013091100123E0230F2D3720F4019600
:1005D000A11DB11D05C026E8230F0296A11DB11D66
:1005E000209310018093110190931201A0931301A5
:1005F000B09314018091150190911601A0911701FB
:10060000B09118010196A11DB11D80931501909321
:100610001601A0931701B0931801BF91AF919F915C
:100620008F913F912F910F900FBE0F901F901895B3
:10063000789484B5826084BD84B5816084BD85B5BD
:10064000826085BD85B5816085BD80916E008160C9
:1006500080936E001092810080918100826080936F
:100660008100809181008160809381008091800071
:100670008160809380008091B10084608093B1009C
:100680008091B00081608093B00080917A00846096
:1006900080937A0080917A00826080937A008091C2
:1006A0007A00816080937A0080917A0080688093DC
:1006B0007A001092C100E0912901F0912A0182E0B4
:1006C0008083E0912501F09126011082E0912701BD
:1006D000F09128018FEC808310923101E0912D017F
:1006E000F0912E0186E08083E0912B01F0912C01A6
:1006F000808180618083E0912B01F0912C018081C9
:1007000088608083E0912B01F0912C0180818068CA
:100710008083E0912B01F0912C0180818F7D80837B
:1007200061E084E00E94DC010E943D0261E084E01F
:100730000E94AC0161E08DE00E94DC0162E082E099
:100740000E94DC01C0EBD0E00CE910E038E8E32EB9
:1007500030E0F32EFE018491F801C490F701D490AB
:10076000DD20B9F081110E9483018D2D90E0880F6A
:10077000991F84589F4FFC01A591B4918C91C82278
:1007800041F060E08DE00E94AC010E943D0262E613
:1007900007C061E08DE00E94AC010E943D0261E66D
:1007A00089E191E00E94100189E191E00E94D90065
:1007B000892B79F089E191E00E94B700813391059E
:1007C00011F460E003C0C09721F461E084E00E946E
:1007D000AC010E947901BECFE9E1F1E013821282FF
:1007E00088EE93E0A0E0B0E084839583A683B7838E
:1007F00084E091E09183808385EC90E09587848705
:1008000084EC90E09787868780EC90E0918B808BDA
:1008100081EC90E0938B828B82EC90E0958B848BC3
:1008200086EC90E0978B868B118E128E138E148E31
:100830000895EE0FFF1F0590F491E02D099481E0DB
:0C08400090E0F8940C942404F894FFCF8E
:10084C000000000010018C00D900B700CB0057014C
:107E0000112484B714BE81FFF0D085E080938100F7
:107E100082E08093C00088E18093C10086E0809377
:107E2000C20080E18093C4008EE0C9D0259A86E02C
:107E300020E33CEF91E0309385002093840096BBD3
:107E4000B09BFECF1D9AA8958150A9F7CC24DD24C4
:107E500088248394B5E0AB2EA1E19A2EF3E0BF2EE7
:107E6000A2D0813461F49FD0082FAFD0023811F036
:107E7000013811F484E001C083E08DD089C08234E0
:107E800011F484E103C0853419F485E0A6D080C0E4
:107E9000853579F488D0E82EFF2485D0082F10E0AE
:107EA000102F00270E291F29000F111F8ED06801E7
:107EB0006FC0863521F484E090D080E0DECF843638
:107EC00009F040C070D06FD0082F6DD080E0C81688
:107ED00080E7D80618F4F601B7BEE895C0E0D1E017
:107EE00062D089930C17E1F7F0E0CF16F0E7DF06D8
:107EF00018F0F601B7BEE89568D007B600FCFDCFD4
:107F0000A601A0E0B1E02C9130E011968C91119780
:107F100090E0982F8827822B932B1296FA010C0160
:107F200087BEE89511244E5F5F4FF1E0A038BF0790
:107F300051F7F601A7BEE89507B600FCFDCF97BE46
:107F4000E89526C08437B1F42ED02DD0F82E2BD052
:107F50003CD0F601EF2C8F010F5F1F4F84911BD097
:107F6000EA94F801C1F70894C11CD11CFA94CF0C13
:107F7000D11C0EC0853739F428D08EE10CD085E9AC
:107F80000AD08FE07ACF813511F488E018D01DD067
:107F900080E101D065CF982F8091C00085FFFCCF94
:107FA0009093C60008958091C00087FFFCCF809118
:107FB000C00084FD01C0A8958091C6000895E0E648
:107FC000F0E098E1908380830895EDDF803219F02E
:107FD00088E0F5DFFFCF84E1DECF1F93182FE3DFCA
:107FE0001150E9F7F2DF1F91089580E0E8DFEE27F6
:047FF000FF270994CA
:027FFE00040479
:0400000300007E007B
:00000001FF